:100000000C9477010C9422080C94F7070C94CC07FD
:100010000C94A1070C9476070C944B070C942007C2
:100020000C94F5060C94A8010C94A8010C94A8015A
:100030000C94A8010C94A8010C94A8010C94A8019C
:100040000C94A8010C94A8010C94A8010C94A8018C
:100050000C94A8010C94A8010C94A8010C94AB0674
:100060000C94A8010C9477080C944D080C94A801EA
:100070000C94A8010C94A8010C94A8010C94A8015C
:100080000C94A8010C94A8010C94A8010C94A8014C
:100090000C94A8010C94A8010C94A8010C94A8013C
:1000A0000C94A8010C94A8010C94A8010C94A8012C
:1000B0000C94A8010C94A8010C94A8010C94A8011C
:1000C0000C94A8010C94A8010C94A8010C94A8010C
:1000D0000C94A8010C94A8010C94A8010C94A801FC
:1000E0000C94A8010C94CE040C9443030C94D102FC
:1000F0000C9420030C94CE010C9409020C944D0333
:100100000C9439030C94650B0C94FC020C94CF0BEB
:100110000C94DA010C94AD030C94F5010C94D2010B
:100120000C9403020C94F2020C946B030C94090CD3
:100130000C94F60A0C94D60A0C94FB010C94DE0283
:100140000C94F1010C94E8020C94DE0A0C94E30187
:100150000C94780B0C94D6010C9407040C944E0B61
:100160000C94C1030C9457030C947F0A0C947003F5
:100170000C94D9020C949E030C94BF0C0C940C03A9
:100180000C94ED010C94F3040C9461030C94860A16
:100190000C94C8010C94FF010C94E60A0C9408021C
:1001A0000C942A030C9471030C9454040C941603BD
:1001B0000C94060B0C94690A0C94DD010C940D024E
:1001C0000C94E7010C9404030C94CF03000021006D
:1001D000240027002A002D00300033000101000018
:1001E000040107010A0100002200250028002B005D
:1001F0002E003100340002010000050108010B014E
:10020000000020002300260029002C002F003200CF
:1002100000010000030106010901050505050705A8
:1002200008080808020202020A0A08080404040472
:10023000010101010101010103030303030303039E
:10024000040707070C0C0C0C0C0C0C0C020202022D
:1002500006060606060606060B0B0B0B0B0B0B0B16
:1002600001021020200808102040102040800201C8
:1002700002010804020101020408102040808040AD
:1002800020100804020180040201804020100804AC
:10029000020108040201010204081020408001024A
:1002A00004081020408000000A0B02090C0D0E0803
:1002B000070304010000000000000000000000002F
:1002C000000000000000000000000000000000002E
:1002D00000001211100000000000000000000000EB
:1002E000000000000000000000000000BF0C11240E
:1002F0001FBECFEFD1E2DEBFCDBF00E00CBF12E0EA
:10030000A0E0B2E0EEEAFDE100E00BBF02C0079022
:100310000D92A634B107D9F723E0A6E4B2E001C0FC
:100320001D92AC34B207E1F711E0C7E7D1E000E07D
:1003300006C021970109802FFE010E94AB0EC6372F
:10034000D10780E00807A9F70E94F2080C94D50EA7
:100350000C9400008150823108F05AC0E82FF0E080
:100360008827EA54FE4F8F4F0C94AB0ED601DA016A
:10037000C801CE01D2010802DD01E301E701ED0170
:10038000F101F501FB01FF010802030209020D0260
:10039000809180008F778093800008958091800005
:1003A0008F7DF9CF80918000877FF5CF84B58F77DF
:1003B00084BD089584B58F7DFBCF8091B0008F7789
:1003C0008093B00008958091B0008F7DF9CF809127
:1003D00090008F77809390000895809190008F7D9A
:1003E000F9CF80919000877FF5CF8091A0008F7723
:1003F0008093A00008958091A0008F7DF9CF809117
:10040000A000877FF5CF809120018F778093200116
:100410000895809120018F7DF9CF80912001877F01
:10042000F5CFCF93DF93282F30E0F901EA55FD4F48
:100430008491F901E05AFD4FD491F901E65EFD4F38
:10044000C491CC23A1F081110E94AA01EC2FF0E00D
:10045000EE0FFF1FE050FE4FA591B491EC91ED23FC
:1004600081E090E009F480E0DF91CF91089580E091
:1004700090E0FACF1F93CF93DF93282F30E0F9015C
:10048000EA55FD4F8491F901E05AFD4FD491F901ED
:10049000E65EFD4FC491CC23A9F0162F81110E9476
:1004A000AA01EC2FF0E0EE0FFF1FEA51FE4FA591DD
:1004B000B4918FB7F894EC91111108C0D095DE2358
:1004C000DC938FBFDF91CF911F910895DE2BF8CF82
:1004D000CF93DF9390E0FC01E05AFD4F2491865EBC
:1004E0009D4FFC0184918823D1F090E0880F991FE3
:1004F000FC01E453FE4FA591B491FC01EA51FE4F7B
:10050000C591D49161110EC09FB7F8948C91E22FE0
:10051000E0958E238C932881E223E8839FBFDF91AF
:10052000CF9108958FB7F894EC91E22BEC938FBFA5
:10053000F6CF1F93CF93DF93182FEB0161E00E945A
:100540006802209739F460E0812FDF91CF911F91ED
:100550000C943A02CF3FD10511F461E0F5CFE12FC1
:10056000F0E0EA55FD4FE491E150E23108F0B3C00C
:10057000F0E08827E154FD4F8F4F0C94AB0ED10271
:10058000D902DE02E802F2026B03FC0204030C0350
:10059000160320032A03390343036B034D03570358
:1005A000610384B5806884BDC7BDDF91CF911F9181
:1005B000089584B5806284BDC8BDF7CF8091800066
:1005C000806880938000D0938900C0938800EDCF2D
:1005D00080918000806280938000D0938B00C093D4
:1005E0008A00E3CF80918000886080938000D09360
:1005F0008D00C0938C00D9CF8091B000806880932B
:10060000B000C093B300D1CF8091B00080628093DE
:10061000B000C093B400C9CF8091900080688093EF
:100620009000D0939900C0939800BFCF8091900024
:10063000806280939000D0939B00C0939A00B5CFC6
:1006400080919000886080939000D0939D00C0932B
:100650009C00ABCF8091A00080688093A000809127
:10066000A0008F7B8093A000D093A900C093A80026
:100670009CCF8091A00080628093A000D093AB00BB
:10068000C093AA0092CF8091A00088608093A000C0
:10069000D093AD00C093AC0088CF809120018068DA
:1006A00080932001D0932901C09328017ECF8091AF
:1006B0002001806280932001D0932B01C0932A01F6
:1006C00074CF80912001886080932001D0932D0108
:1006D000C0932C016ACFC038D1050CF03ECF33CF88
:1006E0000895AF92BF92CF92DF92EF92FF920F9355
:1006F0001F93CF93DF936C017B018B01040F151FB8
:10070000EB015E01AE18BF08C017D10759F069911F
:10071000D601ED91FC910190F081E02DC601199573
:10072000892B79F7C501DF91CF911F910F91FF9030
:10073000EF90DF90CF90BF90AF900895FC01538D64
:10074000448D252F30E0842F90E0821B930B5417AB
:1007500010F0CF96089501970895FC01918D828D38
:10076000981761F0A28DAE0FBF2FB11D5D968C91D1
:10077000928D9F5F9F73928F90E008958FEF9FEF10
:100780000895FC01918D828D981731F0828DE80FCC
:10079000F11D858D90E008958FEF9FEF0895FC0186
:1007A000918D228D892F90E0805C9F4F821B910953
:1007B0008F73992708958FEA92E00E94CF0321E07A
:1007C000892B09F420E0822F0895FC01A48DA80F45
:1007D000B92FB11DA35ABF4F2C91848D90E0019683
:1007E0008F739927848FA689B7892C93A089B189A3
:1007F0008C91837080648C93938D848D981306C044
:100800000288F389E02D80818F7D80830895EF92A7
:10081000FF920F931F93CF93DF93EC0181E0888FBA
:100820009B8D8C8D98131AC0E889F989808185FF8A
:1008300015C09FB7F894EE89FF896083E889F9892C
:1008400080818370806480839FBF81E090E0DF912E
:10085000CF911F910F91FF90EF900895F62E0B8D81
:1008600010E00F5F1F4F0F731127E02E8C8D8E113C
:100870000CC00FB607FCFACFE889F989808185FFA3
:10088000F5CFCE010E94E503F1CFEB8DEC0FFD2FEC
:10089000F11DE35AFF4FF0829FB7F8940B8FEA895E
:1008A000FB8980818062CFCFCF93DF93EC01888D6D
:1008B0008823B9F0AA89BB89E889F9898C9185FDDB
:1008C00003C0808186FD0DC00FB607FCF7CF8C9169
:1008D00085FFF2CF808185FFEDCFCE010E94E50339
:1008E000E9CFDF91CF91089580E090E0892B29F046
:1008F0000E94DB0381110E94000080E090E0892BC0
:1009000049F080E090E0892B29F00E9400008111DD
:100910000E94000080E090E0892B49F080E090E0A8
:10092000892B29F00E94000081110E94000080E0C4
:1009300090E0892B49F080E090E0892B29F00E941B
:10094000000081110C94000008959C0190E077FF55
:1009500004C071956195710991E06F3F710519F0BF
:1009600014F06FEF70E0232B69F484E0911106C05E
:100970000E94990260E082E00C943A020E9499027F
:1009800061E0F9CF88E0913029F40E94990260E09B
:1009900085E0F2CF0E94990261E0FACF83E10E94E4
:1009A00011020197A1F48091650290916602A091D5
:1009B0006702B09168020196A11DB11D8093650286
:1009C00090936602A0936702B093680208958091A5
:1009D000650290916602A0916702B091680201974A
:1009E000A109B109EBCF85E10E9411020197A1F4A1
:1009F00080917D0290917E02A0917F02B091800251
:100A00000197A109B10980937D0290937E02A09382
:100A10007F02B0938002089580917D0290917E02C2
:100A2000A0917F02B09180020196A11DB11DEBCF74
:100A30002F923F924F925F926F927F928F929F92EE
:100A4000AF92BF92CF92DF92EF92FF920F931F93DC
:100A5000CF93DF93EC018C809D80AE80BF80888532
:100A600099858401081B190BB801012E000C880B15
:100A7000990B0E94DE0D9B01AC01688179818A810E
:100A80009B810E94390D0E94A60D6B016E847F84AC
:100A9000A0911402B0911502AC019B010E94B30E0B
:100AA0001B012C018C859D85A801481B590B2091A9
:100AB000120230911302429FC001439F900D529F3A
:100AC000900D1124092E000CAA0BBB0BA201910161
:100AD000281B390B4A0B5B0BCA01B9019301072C88
:100AE000000C440B550B620F731F841F951F209140
:100AF000100230911102032E000C440B550B0E9482
:100B00008C0E88869986AA86BB8688899989AA8947
:100B1000BB89820F931FA41FB51F8F3F9105A105AD
:100B2000B10574F582303FEF9307A307B3076CF16B
:100B300060914602709147026C9D90016D9D300D51
:100B40007C9D300D1124620E731E7F866E86888B0D
:100B5000998BAA8BBB8B1D870C87DF91CF911F913F
:100B60000F91FF90EF90DF90CF90BF90AF909F904C
:100B70008F907F906F905F904F903F902F9008954F
:100B80008FEF90E0A0E0B0E0E2CF81E09FEFAFEF29
:100B9000BFEFDDCFE9E6F2E010821182128213820C
:100BA00080917D0290917E02A0917F02B09180029F
:100BB00084839583A683B78380879187A287B38731
:100BC000108A118A128A138A158614861786168649
:100BD000E1E5F2E0108211821282138280916502B7
:100BE00090916602A0916702B09168028483958318
:100BF000A683B78380879187A287B387108A118ADB
:100C0000128A138A15861486178616860895FC01A3
:100C100001900020E9F73197AF01481B590BBC0147
:100C20008FEA92E00C947103CF93DF930E94070642
:100C3000EC018CE292E00E9407068C0F9D1FDF9171
:100C4000CF9108958F929F92AF92BF92CF92DF92F1
:100C5000EF92FF920F931F93CF93DF93CDB7DEB741
:100C6000A1970FB6F894DEBF0FBECDBF6B017C011C
:100C7000F7FE41C06DE28FEA92E00E9407048C010A
:100C800022273327A9012C193D094E095F0919A212
:100C9000CE0181967C019AE0892E912CA12CB12C59
:100CA000CA01B901A50194010E946A0E605DF701B5
:100CB00062937F01211531054105510589F790E0C7
:100CC00080E0309719F0CF010E940706800F911F36
:100CD000A1960FB6F894DEBF0FBECDBFDF91CF91C6
:100CE0001F910F91FF90EF90DF90CF90BF90AF904A
:100CF0009F908F900895AC019B0119A28E010F5D0A
:100D00001F4F8AE0C82ED12CE12CF12CCA01B90169
:100D1000A70196010E946A0E605DF80162938F013F
:100D2000211531054105510589F790E080E03097A4
:100D300079F2CF010E940706CBCFCF93DF930E94B9
:100D40002206EC018CE292E00E9407068C0F9D1FA8
:100D5000DF91CF9108951F920F920FB60F92112439
:100D60002F933F938F939F93AF93BF938091AB0249
:100D70009091AC02A091AD02B091AE023091AA0266
:100D800023E0230F2D3758F50196A11DB11D2093A7
:100D9000AA028093AB029093AC02A093AD02B093F1
:100DA000AE028091A6029091A702A091A802B091F4
:100DB000A9020196A11DB11D8093A6029093A702DE
:100DC000A093A802B093A902BF91AF919F918F9178
:100DD0003F912F910F900FBE0F901F90189526E80E
:100DE000230F0296A11DB11DD2CF1F920F920FB6F5
:100DF0000F9211240BB60F922F933F934F935F9353
:100E00006F937F938F939F93AF93BF93EF93FF93D2
:100E1000E0910E02F0910F021995FF91EF91BF91B1
:100E2000AF919F918F917F916F915F914F913F9182
:100E30002F910F900BBE0F900FBE0F901F90189523
:100E40001F920F920FB60F9211240BB60F922F9391
:100E50003F934F935F936F937F938F939F93AF9342
:100E6000BF93EF93FF93E0910C02F0910D0219955F
:100E7000FF91EF91BF91AF919F918F917F916F9172
:100E80005F914F913F912F910F900BBE0F900FBE2E
:100E90000F901F9018951F920F920FB60F9211246A
:100EA0000BB60F922F933F934F935F936F937F9364
:100EB0008F939F93AF93BF93EF93FF93E0910202C1
:100EC000F09103021995FF91EF91BF91AF919F911E
:100ED0008F917F916F915F914F913F912F910F90E3
:100EE0000BBE0F900FBE0F901F9018951F920F9280
:100EF0000FB60F9211240BB60F922F933F934F937F
:100F00005F936F937F938F939F93AF93BF93EF9371
:100F1000FF93E0910002F09101021995FF91EF918A
:100F2000BF91AF919F918F917F916F915F914F9101
:100F30003F912F910F900BBE0F900FBE0F901F90FF
:100F400018951F920F920FB60F9211240BB60F92A5
:100F50002F933F934F935F936F937F938F939F93C1
:100F6000AF93BF93EF93FF93E0910A02F0910B02CE
:100F70001995FF91EF91BF91AF919F918F917F91C3
:100F80006F915F914F913F912F910F900BBE0F90FA
:100F90000FBE0F901F9018951F920F920FB60F92D1
:100FA00011240BB60F922F933F934F935F936F9340
:100FB0007F938F939F93AF93BF93EF93FF93E091B2
:100FC0000802F09109021995FF91EF91BF91AF913D
:100FD0009F918F917F916F915F914F913F912F9151
:100FE0000F900BBE0F900FBE0F901F9018951F9281
:100FF0000F920FB60F9211240BB60F922F933F93BF
:101000004F935F936F937F938F939F93AF93BF9310
:10101000EF93FF93E0910602F09107021995FF917B
:10102000EF91BF91AF919F918F917F916F915F9160
:101030004F913F912F910F900BBE0F900FBE0F90CD
:101040001F9018951F920F920FB60F9211240BB696
:101050000F922F933F934F935F936F937F938F9351
:101060009F93AF93BF93EF93FF93E0910402F091AE
:1010700005021995FF91EF91BF91AF919F918F91CB
:101080007F916F915F914F913F912F910F900BBE88
:101090000F900FBE0F901F9018951F920F920FB6D2
:1010A0000F9211240BB60F922F933F934F935F93A0
:1010B0006F937F938F939F93AF93BF93EF93FF9320
:1010C0008FEA92E00E94E503FF91EF91BF91AF910B
:1010D0009F918F917F916F915F914F913F912F9150
:1010E0000F900BBE0F900FBE0F901F9018951F9280
:1010F0000F920FB60F9211240BB60F922F938F936E
:101100009F93EF93FF93E091BF02F091C002808123
:10111000E091C502F091C60282FD1DC090818091D0
:10112000C8028F5F8F732091C902821741F0E0914E
:10113000C802F0E0E155FD4F958F8093C802FF9102
:10114000EF919F918F912F910F900BBE0F900FBE3B
:101150000F901F9018958081F2CFCF92DF92EF927F
:10116000FF920F931F93E82FF92F05C0015011092B
:101170002109310961F1908196239417B9F305C0D3
:10118000015011092109310911F19081962394131D
:10119000F7CFC12CD12CE12CF12C0AC08FEFC81A4B
:1011A000D80AE80AF80A0C151D052E053F0579F046
:1011B00080818623841791F36C2D7D2D8E2D9F2D9C
:1011C0001F910F91FF90EF90DF90CF90089560E016
:1011D00070E080E090E01F910F91FF90EF90DF9022
:1011E000CF900895CF93DF9300D000D000D01F920E
:1011F000CDB7DEB7789484B5826084BD84B5816054
:1012000084BD85B5826085BD85B5816085BD8091D1
:101210006E00816080936E00109281008091810049
:101220008260809381008091810081608093810041
:10123000809180008160809380008091B100846003
:101240008093B1008091B00081608093B000809164
:1012500091008260809391008091910081608093E1
:101260009100809190008160809390008091A10016
:1012700082608093A1008091A10081608093A10091
:101280008091A00081608093A00080912101826004
:1012900080932101809121018160809321018091BF
:1012A000200181608093200180917A008460809386
:1012B0007A0080917A00826080937A0080917A002F
:1012C000816080937A0080917A00806880937A00B0
:1012D0001092C10061E082E00E94680261E084E057
:1012E0000E94680261E085E00E94680261E088E097
:1012F0000E94680260E082E10E94680260E083E18F
:101300000E94680260E084E10E94680260E085E17A
:101310000E94680283EF94E0909307028093060294
:10132000809169008C6080936900E99A8EEC94E06A
:1013300090930B0280930A0280916900806C8093E5
:101340006900EB9AE091BF02F091C00282E08083D5
:10135000E091BF02F091C0021082E091BB02F091D7
:10136000BC021082E091BD02F091BE0280E1808358
:101370001092C702E091C302F091C40286E080831C
:10138000E091C102F091C202808180618083E0918E
:10139000C102F091C202808188608083E091C10225
:1013A000F091C202808180688083E091C102F09157
:1013B000C20280818F7D808361E08DE00E943A02CD
:1013C00061E08DE00E943A020E94CA059AE3492E2C
:1013D000512C612C712C22E0222E312C88248394F4
:1013E000912C42E9A42E42E0B42E8FEA92E00E94B2
:1013F000CF03181619060CF04DC28FEA92E00E9436
:10140000AD032091A4023091A5028D3009F004C2F1
:101410002130310509F052C0E091A202F091A302FF
:10142000EE56FD4F1082BA86A98682E992E00E94AC
:10143000EC0C8C01092E000CAA0BBB0B80934C0208
:1014400090934D02A0934E02B0934F0282E892E037
:101450000E94EC0CBC016C01990FEE08FF08C092D1
:101460004802D0924902E0924A02F0924B02E09187
:101470008102E156E83108F0CCC10E2E000CFF0BC2
:101480008827EA5BF54F8F4F0C94AB0E860A7F0AD4
:10149000F60AD60A4E0B090C090C090C090C090CAA
:1014A000090C090C780B090CCF0B060B090C650B0A
:1014B000090C090C690A090CE60ADE0A223031051A
:1014C00009F0B1CFE091A202F091A302EE57FD4FD7
:1014D000A9CF8E010F5F1F4FAE01475F5F4F64E3DF
:1014E00072E089859A850E940A0D009709F478C1F7
:1014F0000E94EC0CF801819391938F01EDCF60E095
:1015000071EE80E090E00E949D0628C0802F063397
:1015100010F08AEC800F20917B00982F9870277F25
:10152000922B90937B008770806480937C008091E5
:101530007A00806480937A0080917A0086FDFCCFE7
:101540006091780070917900072E000C880B990B40
:101550000E9422068CE292E00E940706109281020D
:10156000A2E9B2E0E0E11D92EA95E9F7E2E8F2E0F3
:10157000DF0180E11D928A95E9F710924C021092EA
:101580004D0210924E0210924F0210924802109299
:10159000490210924A0210924B021092A502109238
:1015A000A4021092A3021092A2021FCF802F0E94C9
:1015B0001102BC01990F880B990BCACF802F0E9492
:1015C00099028FE292E00E941406C8CF60E0C11435
:1015D000D104E104F10431F0CA94CD28CE28CF28FB
:1015E00081F761E0802F0E943A02EBCF60E0C114E6
:1015F000D104E104F10431F0CA94CD28CE28CF28DB
:1016000001F761E0802F0E946802DBCF61E0802F4C
:101610000E94680260E0802F0E943A0283E090E01E
:101620000197F1F761E0802F0E943A028FE090E08D
:101630000197F1F760E0802F0E943A0260E0802F6E
:101640000E9468021127F801E05AFD4F6491F801E9
:10165000E65EFD4FE491F0E0EE0FFF1FE050FE4F1D
:101660008591949100E412E42FE030E0462F0E942F
:10167000AD08611571058105910529F06F5F7F4FF8
:101680008F4F9F4F9F70A30192010E948C0ECA0141
:10169000B9010E94DE0D0E94A60D35CF60917D023A
:1016A00070917E0280917F02909180020E942206BA
:1016B00082E392E00E9407066091650270916602E3
:1016C00080916702909168021ECF10927D02109265
:1016D0007E0210927F021092800210926502109298
:1016E000660210926702109268020E94CA0569CFD2
:1016F0008FB7F8944091AB025091AC026091AD026B
:101700007091AE028FBFC0904C02D0904D02E0901D
:101710004E02F0904F02C114D104E104F104D9F556
:101720008091480290914902A0914A02B0914B02E7
:10173000892B8A2B8B2B79F570E060E090E080E0BC
:101740000E94A50470E060E081E090E00E94A504A2
:101750000E94CA0510925002C701B6010E94DE0D18
:101760006093690270936A0280936B0290936C029B
:10177000609148027091490280914A0290914B0217
:101780000E94DE0D609351027093520280935302C7
:101790009093540216CFB1E0B0935002DDCF8FB7D3
:1017A000F8944091AB025091AC026091AD027091FF
:1017B000AE028FBF0E94CA051092500200914802EB
:1017C0001091490260914C0270914D0290E080E0CE
:1017D0000E94A504B80181E090E00E94A504F1CE2A
:1017E00089819A8190931502809314028B819C8148
:1017F00090931302809312028D819E8190934702F1
:10180000809346028F8198859093110280931002F5
:10181000D8CE86E392E0D7CE8032C1F421153105CF
:1018200029F49092A5028092A402DFCD21303105E7
:1018300009F0DBCDE091A202F091A302EE56FD4F3C
:1018400010823092A5022092A402ABCE2115310560
:1018500019F480938102C9CD2130310579F42091AA
:10186000A2023091A302F901EE56FD4F80832F5F53
:101870003F4F3093A3022093A202B7CD223031050F
:1018800009F0B3CD2091A2023091A302F901EE57E5
:10189000FD4FECCF2FB7F8948091AB029091AC0242
:1018A000A091AD02B091AE022FBFC0901602D090B1
:1018B0001702E0901802F0901902C816D906EA063D
:1018C000FB0608F03FC080917D0290917E02A091BE
:1018D0007F02B091800280936D0290936E02A0937C
:1018E0006F02B09370028091650290916602A091A0
:1018F0006702B09168028093550290935602A093BC
:101900005702B09358028091500281111EC08091FD
:10191000750290917602892B31F480915D0290914D
:101920005E02892B11F00E94CA05A1E2CA0ED11CE9
:10193000E11CF11CC0921602D0921702E09218022C
:10194000F09219020E94740450CD81E592E00E9449
:10195000180589E692E00E94180500916102109135
:1019600062026091790270917A0290E080E00E94B8
:10197000A504B80181E090E00E94A504D6CFEFEA6B
:10198000F2E01382128288EE93E0A0E0B0E084835C
:101990009583A683B7838EE192E09183808385EC63
:1019A00090E09587848784EC90E09787868780EC29
:1019B00090E0918B808B81EC90E0938B828B82EC1A
:1019C00090E0958B848B86EC90E0978B868B118EC4
:1019D000128E138E148E0895FC0188279927E8949F
:1019E00021912032E9F3293010F02E30C8F32B3248
:1019F00041F02D3239F4689404C00E94310D820FF9
:101A0000911D219120532A30C0F31EF490958195A9
:101A10009F4F0895FA01A191B081009719F4109792
:101A2000E1F0CD01DC01CD010D90002011F4C001E9
:101A300013C0FB012191222319F02015D9F7F3CF10
:101A4000FB012191201519F41E92119606C0222344
:101A5000C1F70D900020A1F7D001FA01A193B08346
:101A600008957AE0979F902D879F802D910D1124E6
:101A700008955058BB27AA270E94510D0C94300E90
:101A80000E94220E38F00E94290E20F039F49F3F68
:101A900019F426F40C941F0E0EF4E095E7FB0C9459
:101AA000190EE92F0E94410E58F3BA176207730707
:101AB0008407950720F079F4A6F50C94630E0EF4D4
:101AC000E0950B2EBA2FA02D0B01B90190010C014E
:101AD000CA01A0011124FF27591B99F0593F50F466
:101AE000503E68F11A16F040A22F232F342F4427BE
:101AF000585FF3CF469537952795A795F0405395B6
:101B0000C9F77EF41F16BA0B620B730B840BBAF085
:101B10009150A1F0FF0FBB1F661F771F881FC2F7F0
:101B20000EC0BA0F621F731F841F48F48795779504
:101B30006795B795F7959E3F08F0B0CF9395880FBE
:101B400008F09927EE0F9795879508950E94AD0D9F
:101B50006894B1110C94640E08950E94490E88F0A7
:101B60009F5798F0B92F9927B751B0F0E1F0660F61
:101B7000771F881F991F1AF0BA95C9F714C0B130A2
:101B800091F00E94630EB1E008950C94630E672FEC
:101B9000782F8827B85F39F0B93FCCF386957795D1
:101BA0006795B395D9F73EF49095809570956195BA
:101BB0007F4F8F4F9F4F0895E89409C097FB3EF4E5
:101BC00090958095709561957F4F8F4F9F4F99238A
:101BD000A9F0F92F96E9BB279395F6958795779508
:101BE0006795B795F111F8CFFAF4BB0F11F460FFC8
:101BF0001BC06F5F7F4F8F4F9F4F16C0882311F020
:101C000096E911C0772321F09EE8872F762F05C033
:101C1000662371F096E8862F70E060E02AF09A95CE
:101C2000660F771F881FDAF7880F9695879597F9C3
:101C3000089597F99F6780E870E060E008959FEF4E
:101C400080EC089500240A94161617061806090653
:101C5000089500240A941216130614060506089522
:101C6000092E0394000C11F4882352F0BB0F40F4AA
:101C7000BF2B11F460FF04C06F5F7F4F8F4F9F4FEA
:101C8000089557FD9058440F551F59F05F3F71F06C
:101C90004795880F97FB991F61F09F3F79F08795D3
:101CA0000895121613061406551FF2CF4695F1DF5C
:101CB00008C0161617061806991FF1CF86957105EC
:101CC000610508940895E894BB2766277727CB0120
:101CD00097F90895A1E21A2EAA1BBB1BFD010DC0A6
:101CE000AA1FBB1FEE1FFF1FA217B307E407F507CC
:101CF00020F0A21BB30BE40BF50B661F771F881FA8
:101D0000991F1A9469F760957095809590959B013D
:101D1000AC01BD01CF010895052E97FB1EF4009480
:101D20000E94A30E57FD07D00E946A0E07FC03D045
:101D30004EF40C94A30E50954095309521953F4F4D
:101D40004F4F5F4F089590958095709561957F4FA7
:101D50008F4F9F4F0895EE0FFF1F881F8BBF079077
:101D6000F691E02D1994B7FF0C94BB0E0E94BB0EA8
:101D7000821B930B08950E94C60EA59F900DB49FE1
:101D8000900DA49F800D911D11240895A29FB00174
:101D9000B39FC001A39F700D811D1124911DB29F9F
:0E1DA000700D811D1124911D0895F894FFCF40
:101DAE00700370037003700370037003700370038D
:101DBE0032000C0014002100000000000000070497
:101DCE0071039E035404CF03AD03C1030D0A004FEC
:101DDE004B0020003A00496E76616C696420436FB7
:061DEE006D6D616E6400E2
:00000001FF
